{
  "address": "0xe7f1725E7734CE288F8367e1Bb143E90bb3F0512",
  "abi": [
    {
      "inputs": [
        {
          "internalType": "address",
          "name": "_layerZeroEndpoint",
          "type": "address"
        },
        {
          "internalType": "uint256",
          "name": "_maxSupply",
          "type": "uint256"
        }
      ],
      "stateMutability": "nonpayable",
      "type": "constructor"
    },
    {
      "anonymous": false,
      "inputs": [
        {
          "indexed": true,
          "internalType": "address",
          "name": "owner",
          "type": "address"
        },
        {
          "indexed": true,
          "internalType": "address",
          "name": "approved",
          "type": "address"
        },
        {
          "indexed": true,
          "internalType": "uint256",
          "name": "tokenId",
          "type": "uint256"
        }
      ],
      "name": "Approval",
      "type": "event"
    },
    {
      "anonymous": false,
      "inputs": [
        {
          "indexed": true,
          "internalType": "address",
          "name": "owner",
          "type": "address"
        },
        {
          "indexed": true,
          "internalType": "address",
          "name": "operator",
          "type": "address"
        },
        {
          "indexed": false,
          "internalType": "bool",
          "name": "approved",
          "type": "bool"
        }
      ],
      "name": "ApprovalForAll",
      "type": "event"
    },
    {
      "anonymous": false,
      "inputs": [
        {
          "indexed": false,
          "internalType": "uint16",
          "name": "_srcChainId",
          "type": "uint16"
        },
        {
          "indexed": false,
          "internalType": "bytes",
          "name": "_srcAddress",
          "type": "bytes"
        },
        {
          "indexed": false,
          "internalType": "uint64",
          "name": "_nonce",
          "type": "uint64"
        },
        {
          "indexed": false,
          "internalType": "bytes",
          "name": "_payload",
          "type": "bytes"
        }
      ],
      "name": "MessageFailed",
      "type": "event"
    },
    {
      "anonymous": false,
      "inputs": [
        {
          "indexed": true,
          "internalType": "address",
          "name": "previousOwner",
          "type": "address"
        },
        {
          "indexed": true,
          "internalType": "address",
          "name": "newOwner",
          "type": "address"
        }
      ],
      "name": "OwnershipTransferred",
      "type": "event"
    },
    {
      "anonymous": false,
      "inputs": [
        {
          "indexed": false,
          "internalType": "uint16",
          "name": "_srcChainId",
          "type": "uint16"
        },
        {
          "indexed": false,
          "internalType": "address",
          "name": "_toAddress",
          "type": "address"
        },
        {
          "indexed": false,
          "internalType": "uint256",
          "name": "_tokenId",
          "type": "uint256"
        },
        {
          "indexed": false,
          "internalType": "uint64",
          "name": "_nonce",
          "type": "uint64"
        }
      ],
      "name": "ReceiveFromChain",
      "type": "event"
    },
    {
      "anonymous": false,
      "inputs": [
        {
          "indexed": true,
          "internalType": "address",
          "name": "_sender",
          "type": "address"
        },
        {
          "indexed": true,
          "internalType": "uint16",
          "name": "_dstChainId",
          "type": "uint16"
        },
        {
          "indexed": true,
          "internalType": "bytes",
          "name": "_toAddress",
          "type": "bytes"
        },
        {
          "indexed": false,
          "internalType": "uint256",
          "name": "_tokenId",
          "type": "uint256"
        },
        {
          "indexed": false,
          "internalType": "uint64",
          "name": "_nonce",
          "type": "uint64"
        }
      ],
      "name": "SendToChain",
      "type": "event"
    },
    {
      "anonymous": false,
      "inputs": [
        {
          "indexed": false,
          "internalType": "uint16",
          "name": "_srcChainId",
          "type": "uint16"
        },
        {
          "indexed": false,
          "internalType": "bytes",
          "name": "_srcAddress",
          "type": "bytes"
        }
      ],
      "name": "SetTrustedRemote",
      "type": "event"
    },
    {
      "anonymous": false,
      "inputs": [
        {
          "indexed": true,
          "internalType": "address",
          "name": "from",
          "type": "address"
        },
        {
          "indexed": true,
          "internalType": "address",
          "name": "to",
          "type": "address"
        },
        {
          "indexed": true,
          "internalType": "uint256",
          "name": "tokenId",
          "type": "uint256"
        }
      ],
      "name": "Transfer",
      "type": "event"
    },
    {
      "inputs": [
        {
          "internalType": "address",
          "name": "to",
          "type": "address"
        },
        {
          "internalType": "uint256",
          "name": "tokenId",
          "type": "uint256"
        }
      ],
      "name": "approve",
      "outputs": [],
      "stateMutability": "nonpayable",
      "type": "function"
    },
    {
      "inputs": [
        {
          "internalType": "address",
          "name": "owner",
          "type": "address"
        }
      ],
      "name": "balanceOf",
      "outputs": [
        {
          "internalType": "uint256",
          "name": "",
          "type": "uint256"
        }
      ],
      "stateMutability": "view",
      "type": "function"
    },
    {
      "inputs": [],
      "name": "baseTokenURI",
      "outputs": [
        {
          "internalType": "string",
          "name": "",
          "type": "string"
        }
      ],
      "stateMutability": "view",
      "type": "function"
    },
    {
      "inputs": [
        {
          "internalType": "uint16",
          "name": "",
          "type": "uint16"
        },
        {
          "internalType": "bytes",
          "name": "",
          "type": "bytes"
        },
        {
          "internalType": "uint256",
          "name": "",
          "type": "uint256"
        }
      ],
      "name": "failedMessages",
      "outputs": [
        {
          "internalType": "bytes32",
          "name": "",
          "type": "bytes32"
        }
      ],
      "stateMutability": "view",
      "type": "function"
    },
    {
      "inputs": [
        {
          "internalType": "uint16",
          "name": "_srcChainId",
          "type": "uint16"
        },
        {
          "internalType": "bytes",
          "name": "_srcAddress",
          "type": "bytes"
        }
      ],
      "name": "forceResumeReceive",
      "outputs": [],
      "stateMutability": "nonpayable",
      "type": "function"
    },
    {
      "inputs": [
        {
          "internalType": "uint256",
          "name": "tokenId",
          "type": "uint256"
        }
      ],
      "name": "getApproved",
      "outputs": [
        {
          "internalType": "address",
          "name": "",
          "type": "address"
        }
      ],
      "stateMutability": "view",
      "type": "function"
    },
    {
      "inputs": [
        {
          "internalType": "uint16",
          "name": "",
          "type": "uint16"
        },
        {
          "internalType": "uint16",
          "name": "_chainId",
          "type": "uint16"
        },
        {
          "internalType": "address",
          "name": "",
          "type": "address"
        },
        {
          "internalType": "uint256",
          "name": "_configType",
          "type": "uint256"
        }
      ],
      "name": "getConfig",
      "outputs": [
        {
          "internalType": "bytes",
          "name": "",
          "type": "bytes"
        }
      ],
      "stateMutability": "view",
      "type": "function"
    },
    {
      "inputs": [],
      "name": "getLzEndpoint",
      "outputs": [
        {
          "internalType": "address",
          "name": "",
          "type": "address"
        }
      ],
      "stateMutability": "view",
      "type": "function"
    },
    {
      "inputs": [
        {
          "internalType": "address",
          "name": "account",
          "type": "address"
        }
      ],
      "name": "getTokenList",
      "outputs": [
        {
          "internalType": "uint256[]",
          "name": "",
          "type": "uint256[]"
        }
      ],
      "stateMutability": "view",
      "type": "function"
    },
    {
      "inputs": [
        {
          "internalType": "uint16",
          "name": "_chainId",
          "type": "uint16"
        }
      ],
      "name": "getTrustedRemote",
      "outputs": [
        {
          "internalType": "bytes",
          "name": "",
          "type": "bytes"
        }
      ],
      "stateMutability": "view",
      "type": "function"
    },
    {
      "inputs": [
        {
          "internalType": "address",
          "name": "owner",
          "type": "address"
        },
        {
          "internalType": "address",
          "name": "operator",
          "type": "address"
        }
      ],
      "name": "isApprovedForAll",
      "outputs": [
        {
          "internalType": "bool",
          "name": "",
          "type": "bool"
        }
      ],
      "stateMutability": "view",
      "type": "function"
    },
    {
      "inputs": [
        {
          "internalType": "uint16",
          "name": "_srcChainId",
          "type": "uint16"
        },
        {
          "internalType": "bytes",
          "name": "_srcAddress",
          "type": "bytes"
        }
      ],
      "name": "isTrustedRemote",
      "outputs": [
        {
          "internalType": "bool",
          "name": "",
          "type": "bool"
        }
      ],
      "stateMutability": "view",
      "type": "function"
    },
    {
      "inputs": [
        {
          "internalType": "uint16",
          "name": "_srcChainId",
          "type": "uint16"
        },
        {
          "internalType": "bytes",
          "name": "_srcAddress",
          "type": "bytes"
        },
        {
          "internalType": "uint64",
          "name": "_nonce",
          "type": "uint64"
        },
        {
          "internalType": "bytes",
          "name": "_payload",
          "type": "bytes"
        }
      ],
      "name": "lzReceive",
      "outputs": [],
      "stateMutability": "nonpayable",
      "type": "function"
    },
    {
      "inputs": [],
      "name": "managerAddress",
      "outputs": [
        {
          "internalType": "address",
          "name": "",
          "type": "address"
        }
      ],
      "stateMutability": "view",
      "type": "function"
    },
    {
      "inputs": [],
      "name": "maxSupply",
      "outputs": [
        {
          "internalType": "uint256",
          "name": "",
          "type": "uint256"
        }
      ],
      "stateMutability": "view",
      "type": "function"
    },
    {
      "inputs": [
        {
          "internalType": "address",
          "name": "minter",
          "type": "address"
        }
      ],
      "name": "mintFor",
      "outputs": [],
      "stateMutability": "nonpayable",
      "type": "function"
    },
    {
      "inputs": [],
      "name": "name",
      "outputs": [
        {
          "internalType": "string",
          "name": "",
          "type": "string"
        }
      ],
      "stateMutability": "view",
      "type": "function"
    },
    {
      "inputs": [],
      "name": "nextMintId",
      "outputs": [
        {
          "internalType": "uint256",
          "name": "",
          "type": "uint256"
        }
      ],
      "stateMutability": "view",
      "type": "function"
    },
    {
      "inputs": [
        {
          "internalType": "uint16",
          "name": "_srcChainId",
          "type": "uint16"
        },
        {
          "internalType": "bytes",
          "name": "_srcAddress",
          "type": "bytes"
        },
        {
          "internalType": "uint64",
          "name": "_nonce",
          "type": "uint64"
        },
        {
          "internalType": "bytes",
          "name": "_payload",
          "type": "bytes"
        }
      ],
      "name": "nonblockingLzReceive",
      "outputs": [],
      "stateMutability": "nonpayable",
      "type": "function"
    },
    {
      "inputs": [],
      "name": "owner",
      "outputs": [
        {
          "internalType": "address",
          "name": "",
          "type": "address"
        }
      ],
      "stateMutability": "view",
      "type": "function"
    },
    {
      "inputs": [
        {
          "internalType": "uint256",
          "name": "tokenId",
          "type": "uint256"
        }
      ],
      "name": "ownerOf",
      "outputs": [
        {
          "internalType": "address",
          "name": "",
          "type": "address"
        }
      ],
      "stateMutability": "view",
      "type": "function"
    },
    {
      "inputs": [],
      "name": "renounceOwnership",
      "outputs": [],
      "stateMutability": "nonpayable",
      "type": "function"
    },
    {
      "inputs": [
        {
          "internalType": "uint16",
          "name": "_srcChainId",
          "type": "uint16"
        },
        {
          "internalType": "bytes",
          "name": "_srcAddress",
          "type": "bytes"
        },
        {
          "internalType": "uint64",
          "name": "_nonce",
          "type": "uint64"
        },
        {
          "internalType": "bytes",
          "name": "_payload",
          "type": "bytes"
        }
      ],
      "name": "retryMessage",
      "outputs": [],
      "stateMutability": "payable",
      "type": "function"
    },
    {
      "inputs": [
        {
          "internalType": "address",
          "name": "from",
          "type": "address"
        },
        {
          "internalType": "address",
          "name": "to",
          "type": "address"
        },
        {
          "internalType": "uint256",
          "name": "tokenId",
          "type": "uint256"
        }
      ],
      "name": "safeTransferFrom",
      "outputs": [],
      "stateMutability": "nonpayable",
      "type": "function"
    },
    {
      "inputs": [
        {
          "internalType": "address",
          "name": "from",
          "type": "address"
        },
        {
          "internalType": "address",
          "name": "to",
          "type": "address"
        },
        {
          "internalType": "uint256",
          "name": "tokenId",
          "type": "uint256"
        },
        {
          "internalType": "bytes",
          "name": "_data",
          "type": "bytes"
        }
      ],
      "name": "safeTransferFrom",
      "outputs": [],
      "stateMutability": "nonpayable",
      "type": "function"
    },
    {
      "inputs": [
        {
          "internalType": "uint16",
          "name": "_dstChainId",
          "type": "uint16"
        },
        {
          "internalType": "bytes",
          "name": "_toAddress",
          "type": "bytes"
        },
        {
          "internalType": "uint256",
          "name": "_tokenId",
          "type": "uint256"
        },
        {
          "internalType": "address payable",
          "name": "_refundAddress",
          "type": "address"
        },
        {
          "internalType": "address",
          "name": "_zroPaymentAddress",
          "type": "address"
        },
        {
          "internalType": "bytes",
          "name": "_adapterParam",
          "type": "bytes"
        }
      ],
      "name": "send",
      "outputs": [],
      "stateMutability": "payable",
      "type": "function"
    },
    {
      "inputs": [
        {
          "internalType": "address",
          "name": "_from",
          "type": "address"
        },
        {
          "internalType": "uint16",
          "name": "_dstChainId",
          "type": "uint16"
        },
        {
          "internalType": "bytes",
          "name": "_toAddress",
          "type": "bytes"
        },
        {
          "internalType": "uint256",
          "name": "_tokenId",
          "type": "uint256"
        },
        {
          "internalType": "address payable",
          "name": "_refundAddress",
          "type": "address"
        },
        {
          "internalType": "address",
          "name": "_zroPaymentAddress",
          "type": "address"
        },
        {
          "internalType": "bytes",
          "name": "_adapterParam",
          "type": "bytes"
        }
      ],
      "name": "sendFrom",
      "outputs": [],
      "stateMutability": "payable",
      "type": "function"
    },
    {
      "inputs": [
        {
          "internalType": "address",
          "name": "operator",
          "type": "address"
        },
        {
          "internalType": "bool",
          "name": "approved",
          "type": "bool"
        }
      ],
      "name": "setApprovalForAll",
      "outputs": [],
      "stateMutability": "nonpayable",
      "type": "function"
    },
    {
      "inputs": [
        {
          "internalType": "string",
          "name": "_baseTokenURI",
          "type": "string"
        }
      ],
      "name": "setBaseURI",
      "outputs": [],
      "stateMutability": "nonpayable",
      "type": "function"
    },
    {
      "inputs": [
        {
          "internalType": "uint16",
          "name": "_version",
          "type": "uint16"
        },
        {
          "internalType": "uint16",
          "name": "_chainId",
          "type": "uint16"
        },
        {
          "internalType": "uint256",
          "name": "_configType",
          "type": "uint256"
        },
        {
          "internalType": "bytes",
          "name": "_config",
          "type": "bytes"
        }
      ],
      "name": "setConfig",
      "outputs": [],
      "stateMutability": "nonpayable",
      "type": "function"
    },
    {
      "inputs": [
        {
          "internalType": "address",
          "name": "_managerAddress",
          "type": "address"
        }
      ],
      "name": "setManagerAddress",
      "outputs": [],
      "stateMutability": "nonpayable",
      "type": "function"
    },
    {
      "inputs": [
        {
          "internalType": "uint16",
          "name": "_version",
          "type": "uint16"
        }
      ],
      "name": "setReceiveVersion",
      "outputs": [],
      "stateMutability": "nonpayable",
      "type": "function"
    },
    {
      "inputs": [
        {
          "internalType": "uint16",
          "name": "_version",
          "type": "uint16"
        }
      ],
      "name": "setSendVersion",
      "outputs": [],
      "stateMutability": "nonpayable",
      "type": "function"
    },
    {
      "inputs": [
        {
          "internalType": "uint16",
          "name": "_srcChainId",
          "type": "uint16"
        },
        {
          "internalType": "bytes",
          "name": "_srcAddress",
          "type": "bytes"
        }
      ],
      "name": "setTrustedRemote",
      "outputs": [],
      "stateMutability": "nonpayable",
      "type": "function"
    },
    {
      "inputs": [
        {
          "internalType": "bytes4",
          "name": "interfaceId",
          "type": "bytes4"
        }
      ],
      "name": "supportsInterface",
      "outputs": [
        {
          "internalType": "bool",
          "name": "",
          "type": "bool"
        }
      ],
      "stateMutability": "view",
      "type": "function"
    },
    {
      "inputs": [],
      "name": "symbol",
      "outputs": [
        {
          "internalType": "string",
          "name": "",
          "type": "string"
        }
      ],
      "stateMutability": "view",
      "type": "function"
    },
    {
      "inputs": [
        {
          "internalType": "uint256",
          "name": "tokenId",
          "type": "uint256"
        }
      ],
      "name": "tokenURI",
      "outputs": [
        {
          "internalType": "string",
          "name": "",
          "type": "string"
        }
      ],
      "stateMutability": "view",
      "type": "function"
    },
    {
      "inputs": [
        {
          "internalType": "address",
          "name": "from",
          "type": "address"
        },
        {
          "internalType": "address",
          "name": "to",
          "type": "address"
        },
        {
          "internalType": "uint256",
          "name": "tokenId",
          "type": "uint256"
        }
      ],
      "name": "transferFrom",
      "outputs": [],
      "stateMutability": "nonpayable",
      "type": "function"
    },
    {
      "inputs": [
        {
          "internalType": "address",
          "name": "newOwner",
          "type": "address"
        }
      ],
      "name": "transferOwnership",
      "outputs": [],
      "stateMutability": "nonpayable",
      "type": "function"
    }
  ],
  "transactionHash": "0xa8296b2e35f3aa683501ab1d753b225b681a2297c2bf122bc7a636ef0db8f716",
  "args": [
    "0x0000000000000000000000000000000000000000",
    10000
  ],
  "numDeployments": 1,
  "solcInputHash": "cd085f476446e0e3370666ee01a67124",
  "bytecode": "0x60a06040523480156200001157600080fd5b5060405162003832380380620038328339810160408190526200003491620001da565b6040518060400160405280600681526020016511dbd913919560d21b815250604051806040016040528060048152602001631093919560e21b81525083828282806200008f62000089620000e060201b60201c565b620000e4565b6001600160a01b0316608052508151620000b190600390602085019062000134565b508051620000c790600490602084019062000134565b50506000600a55505050600b9190915550620002539050565b3390565b600080546001600160a01b038381166001600160a01b0319831681178455604051919092169283917f8be0079c531659141344cd1fd0a4f28419497f9722a3daafe3b4186f6b6457e09190a35050565b828054620001429062000216565b90600052602060002090601f016020900481019282620001665760008555620001b1565b82601f106200018157805160ff1916838001178555620001b1565b82800160010185558215620001b1579182015b82811115620001b157825182559160200191906001019062000194565b50620001bf929150620001c3565b5090565b5b80821115620001bf5760008155600101620001c4565b60008060408385031215620001ee57600080fd5b82516001600160a01b03811681146200020657600080fd5b6020939093015192949293505050565b600181811c908216806200022b57607f821691505b602082108114156200024d57634e487b7160e01b600052602260045260246000fd5b50919050565b60805161358b620002a760003960008181610639015281816106f30152818161092501528181610b6e01528181610d54015281816112ea0152818161188001528181611e2f01526122e0015261358b6000f3fe6080604052600436106101ef5760003560e01c8063715018a61161010e578063d1deba1f1161009b578063d1deba1f146105bf578063d547cfb7146105d2578063d5abeb01146105e7578063d8a30732146105fd578063dacbcbe21461062a578063e985e9c51461065d578063eb8d72b71461067d578063eed33cef1461069d578063f2fde38b146106b0578063f5ecbdbc146106d057600080fd5b8063715018a61461047157806371e578dc146104865780638da5cb5b146104a65780638ee74912146104bb57806395d89b411461050a578063a22cb4651461051f578063b88d4fde1461053f578063c87b56dd1461055f578063cbed8b9c1461057f578063cf73a1bc1461059f57600080fd5b8063414319081161018c578063414319081461033a57806342842e0e1461035a57806342d65a8d1461037a578063519056361461039a57806355f804b3146103ad5780636352211e146103cd57806366ad5c8a146103ed57806369b41f951461040d5780636aa99da31461042d57806370a082311461045157600080fd5b80621d3567146101f457806301ffc9a71461021657806306fdde031461024b57806307e0db171461026d578063081812fc1461028d578063095ea7b3146102ba57806310ddb137146102da57806323b872dd146102fa5780633d8b38f61461031a575b600080fd5b34801561020057600080fd5b5061021461020f366004612827565b6106f0565b005b34801561022257600080fd5b506102366102313660046128c7565b6107f9565b60405190151581526020015b60405180910390f35b34801561025757600080fd5b5061026061084b565b604051610242919061293c565b34801561027957600080fd5b5061021461028836600461294f565b6108dd565b34801561029957600080fd5b506102ad6102a836600461296c565b61098d565b6040516102429190612985565b3480156102c657600080fd5b506102146102d53660046129ae565b610a15565b3480156102e657600080fd5b506102146102f536600461294f565b610b26565b34801561030657600080fd5b506102146103153660046129da565b610ba5565b34801561032657600080fd5b50610236610335366004612a63565b610bd6565b34801561034657600080fd5b50610214610355366004612ab7565b610ca2565b34801561036657600080fd5b506102146103753660046129da565b610cf3565b34801561038657600080fd5b50610214610395366004612a63565b610d0e565b6102146103a8366004612ad4565b610dc4565b3480156103b957600080fd5b506102146103c8366004612b9d565b610e17565b3480156103d957600080fd5b506102ad6103e836600461296c565b610e5d565b3480156103f957600080fd5b50610214610408366004612827565b610ed4565b34801561041957600080fd5b5061026061042836600461294f565b610f3a565b34801561043957600080fd5b50610443600a5481565b604051908152602001610242565b34801561045d57600080fd5b5061044361046c366004612ab7565b610fe1565b34801561047d57600080fd5b50610214611068565b34801561049257600080fd5b506102146104a1366004612ab7565b6110a3565b3480156104b257600080fd5b506102ad61117e565b3480156104c757600080fd5b506104436104d6366004612be5565b6002602090815260009384526040808520845180860184018051928152908401958401959095209452929052825290205481565b34801561051657600080fd5b5061026061118d565b34801561052b57600080fd5b5061021461053a366004612c3d565b61119c565b34801561054b57600080fd5b5061021461055a366004612c7b565b6111a7565b34801561056b57600080fd5b5061026061057a36600461296c565b6111d9565b34801561058b57600080fd5b5061021461059a366004612cda565b6112a4565b3480156105ab57600080fd5b50600c546102ad906001600160a01b031681565b6102146105cd366004612d4c565b611355565b3480156105de57600080fd5b506102606114f9565b3480156105f357600080fd5b50610443600b5481565b34801561060957600080fd5b5061061d610618366004612ab7565b611587565b6040516102429190612dcc565b34801561063657600080fd5b507f00000000000000000000000000000000000000000000000000000000000000006102ad565b34801561066957600080fd5b50610236610678366004612e10565b6116b8565b34801561068957600080fd5b50610214610698366004612a63565b6116e6565b6102146106ab366004612e3e565b611774565b3480156106bc57600080fd5b506102146106cb366004612ab7565b6117c6565b3480156106dc57600080fd5b506102606106eb366004612ef2565b611866565b337f00000000000000000000000000000000000000000000000000000000000000006001600160a01b03161461072557600080fd5b61ffff84166000908152600160205260409020805461074390612f43565b90508351148015610782575061ffff84166000908152600160205260409081902090516107709190612f7e565b60405180910390208380519060200120145b6107e75760405162461bcd60e51b815260206004820152602b60248201527f4c7a52656365697665723a20696e76616c696420736f757263652073656e646960448201526a1b99c818dbdb9d1c9858dd60aa1b60648201526084015b60405180910390fd5b6107f3848484846119a3565b50505050565b60006001600160e01b031982166380ac58cd60e01b148061082a57506001600160e01b03198216635b5e139f60e01b145b8061084557506301ffc9a760e01b6001600160e01b03198316145b92915050565b60606003805461085a90612f43565b80601f016020809104026020016040519081016040528092919081815260200182805461088690612f43565b80156108d35780601f106108a8576101008083540402835291602001916108d3565b820191906000526020600020905b8154815290600101906020018083116108b657829003601f168201915b5050505050905090565b336108e661117e565b6001600160a01b03161461090c5760405162461bcd60e51b81526004016107de90612ff0565b6040516307e0db1760e01b815261ffff821660048201527f00000000000000000000000000000000000000000000000000000000000000006001600160a01b0316906307e0db17906024015b600060405180830381600087803b15801561097257600080fd5b505af1158015610986573d6000803e3d6000fd5b5050505050565b600061099882611a94565b6109f95760405162461bcd60e51b815260206004820152602c60248201527f4552433732313a20617070726f76656420717565727920666f72206e6f6e657860448201526b34b9ba32b73a103a37b5b2b760a11b60648201526084016107de565b506000908152600760205260409020546001600160a01b031690565b6000610a2082610e5d565b9050806001600160a01b0316836001600160a01b03161415610a8e5760405162461bcd60e51b815260206004820152602160248201527f4552433732313a20617070726f76616c20746f2063757272656e74206f776e656044820152603960f91b60648201526084016107de565b336001600160a01b0382161480610aaa5750610aaa81336116b8565b610b175760405162461bcd60e51b815260206004820152603860248201527f4552433732313a20617070726f76652063616c6c6572206973206e6f74206f776044820152771b995c881b9bdc88185c1c1c9bdd995908199bdc88185b1b60421b60648201526084016107de565b610b218383611ab1565b505050565b33610b2f61117e565b6001600160a01b031614610b555760405162461bcd60e51b81526004016107de90612ff0565b6040516310ddb13760e01b815261ffff821660048201527f00000000000000000000000000000000000000000000000000000000000000006001600160a01b0316906310ddb13790602401610958565b610baf3382611b1f565b610bcb5760405162461bcd60e51b81526004016107de90613025565b610b21838383611be8565b61ffff831660009081526001602052604081208054829190610bf790612f43565b80601f0160208091040260200160405190810160405280929190818152602001828054610c2390612f43565b8015610c705780601f10610c4557610100808354040283529160200191610c70565b820191906000526020600020905b815481529060010190602001808311610c5357829003601f168201915b505050505090508383604051610c87929190613076565b60405180910390208180519060200120149150509392505050565b33610cab61117e565b6001600160a01b031614610cd15760405162461bcd60e51b81526004016107de90612ff0565b600c80546001600160a01b0319166001600160a01b0392909216919091179055565b610b21838383604051806020016040528060008152506111a7565b33610d1761117e565b6001600160a01b031614610d3d5760405162461bcd60e51b81526004016107de90612ff0565b6040516342d65a8d60e01b81526001600160a01b037f000000000000000000000000000000000000000000000000000000000000000016906342d65a8d90610d8d908690869086906004016130af565b600060405180830381600087803b158015610da757600080fd5b505af1158015610dbb573d6000803e3d6000fd5b50505050505050565b610e0c898989898080601f0160208091040260200160405190810160405280939291908181526020018383808284376000920191909152508b92508a91508990508888611d72565b505050505050505050565b33610e2061117e565b6001600160a01b031614610e465760405162461bcd60e51b81526004016107de90612ff0565b8051610e5990600990602084019061262a565b5050565b6000818152600560205260408120546001600160a01b0316806108455760405162461bcd60e51b815260206004820152602960248201527f4552433732313a206f776e657220717565727920666f72206e6f6e657869737460448201526832b73a103a37b5b2b760b91b60648201526084016107de565b333014610f2e5760405162461bcd60e51b815260206004820152602260248201527f4c7a52656365697665723a2063616c6c6572206d757374206265204272696467604482015261329760f11b60648201526084016107de565b6107f384848484611f1f565b61ffff81166000908152600160205260409020805460609190610f5c90612f43565b80601f0160208091040260200160405190810160405280929190818152602001828054610f8890612f43565b8015610fd55780601f10610faa57610100808354040283529160200191610fd5565b820191906000526020600020905b815481529060010190602001808311610fb857829003601f168201915b50505050509050919050565b60006001600160a01b03821661104c5760405162461bcd60e51b815260206004820152602a60248201527f4552433732313a2062616c616e636520717565727920666f7220746865207a65604482015269726f206164647265737360b01b60648201526084016107de565b506001600160a01b031660009081526006602052604090205490565b3361107161117e565b6001600160a01b0316146110975760405162461bcd60e51b81526004016107de90612ff0565b6110a16000611fb0565b565b600c546001600160a01b031633146111095760405162461bcd60e51b8152602060048201526024808201527f4f6e6c79206d616e616765722063616e2063616c6c20746869732066756e637460448201526334b7b71760e11b60648201526084016107de565b600b54600a54111561115d5760405162461bcd60e51b815260206004820152601c60248201527f4f4e46543a204d6178204d696e74206c696d697420726561636865640000000060448201526064016107de565b600a8054908190600061116f836130e3565b9190505550610e598282612000565b6000546001600160a01b031690565b60606004805461085a90612f43565b610e5933838361201a565b6111b13383611b1f565b6111cd5760405162461bcd60e51b81526004016107de90613025565b6107f3848484846120e5565b60606111e482611a94565b6112485760405162461bcd60e51b815260206004820152602f60248201527f4552433732314d657461646174613a2055524920717565727920666f72206e6f60448201526e3732bc34b9ba32b73a103a37b5b2b760891b60648201526084016107de565b6000611252612118565b90506000815111611272576040518060200160405280600081525061129d565b8061127c84612127565b60405160200161128d9291906130fe565b6040516020818303038152906040525b9392505050565b336112ad61117e565b6001600160a01b0316146112d35760405162461bcd60e51b81526004016107de90612ff0565b6040516332fb62e760e21b81526001600160a01b037f0000000000000000000000000000000000000000000000000000000000000000169063cbed8b9c90611327908890889088908890889060040161312d565b600060405180830381600087803b15801561134157600080fd5b505af1158015610e0c573d6000803e3d6000fd5b61ffff85166000908152600260205260408082209051611376908790613166565b90815260408051602092819003830190206001600160401b038716600090815292529020549050806113ea5760405162461bcd60e51b815260206004820152601d60248201527f4c7a52656365697665723a206e6f2073746f726564206d65737361676500000060448201526064016107de565b8083836040516113fb929190613076565b60405180910390201461144e5760405162461bcd60e51b815260206004820152601b60248201527a131e949958d95a5d995c8e881a5b9d985b1a59081c185e5b1bd859602a1b60448201526064016107de565b61ffff8616600090815260026020526040808220905161146f908890613166565b9081526040805191829003602090810183206001600160401b038916600090815291522091909155633356ae4560e11b815230906366ad5c8a906114bf9089908990899089908990600401613182565b600060405180830381600087803b1580156114d957600080fd5b505af11580156114ed573d6000803e3d6000fd5b50505050505050505050565b6009805461150690612f43565b80601f016020809104026020016040519081016040528092919081815260200182805461153290612f43565b801561157f5780601f106115545761010080835404028352916020019161157f565b820191906000526020600020905b81548152906001019060200180831161156257829003601f168201915b505050505081565b60603361159357600080fd5b6001600160a01b0382166115a657600080fd5b33806115b061117e565b6001600160a01b031614156115c25750815b60006115cd82610fe1565b90506000816001600160401b038111156115e9576115e9612747565b604051908082528060200260200182016040528015611612578160200160208202803683370190505b5090508161162257949350505050565b6000805b600a548110156116ad5761163981611a94565b801561165e5750846001600160a01b031661165382610e5d565b6001600160a01b0316145b1561168e5780838361166f816130e3565b945081518110611681576116816131cd565b6020026020010181815250505b8382141561169b576116ad565b806116a5816130e3565b915050611626565b509095945050505050565b6001600160a01b03918216600090815260086020908152604080832093909416825291909152205460ff1690565b336116ef61117e565b6001600160a01b0316146117155760405162461bcd60e51b81526004016107de90612ff0565b61ffff831660009081526001602052604090206117339083836126ae565b507ffa41487ad5d6728f0b19276fa1eddc16558578f5109fc39d2dc33c3230470dab838383604051611767939291906130af565b60405180910390a1505050565b6117bc338989898080601f0160208091040260200160405190810160405280939291908181526020018383808284376000920191909152508b92508a91508990508888611d72565b5050505050505050565b336117cf61117e565b6001600160a01b0316146117f55760405162461bcd60e51b81526004016107de90612ff0565b6001600160a01b03811661185a5760405162461bcd60e51b815260206004820152602660248201527f4f776e61626c653a206e6577206f776e657220697320746865207a65726f206160448201526564647265737360d01b60648201526084016107de565b61186381611fb0565b50565b6040516304b2b47b60e11b81526060906001600160a01b037f0000000000000000000000000000000000000000000000000000000000000000169063f5ecbdbc90829063096568f6906118bd903090600401612985565b60206040518083038186803b1580156118d557600080fd5b505afa1580156118e9573d6000803e3d6000fd5b505050506040513d601f19601f8201168201806040525081019061190d91906131e3565b6040516001600160e01b031960e084901b16815261ffff918216600482015290871660248201523060448201526064810185905260840160006040518083038186803b15801561195c57600080fd5b505afa158015611970573d6000803e3d6000fd5b505050506040513d6000823e601f3d908101601f191682016040526119989190810190613245565b90505b949350505050565b604051633356ae4560e11b815230906366ad5c8a906119cc908790879087908790600401613279565b600060405180830381600087803b1580156119e657600080fd5b505af19250505080156119f7575060015b6107f3578080519060200120600260008661ffff1661ffff16815260200190815260200160002084604051611a2c9190613166565b9081526040805191829003602090810183206001600160401b0387166000908152915220919091557fe6f254030bcb01ffd20558175c13fcaed6d1520be7becee4c961b65f79243b0d90611a87908690869086908690613279565b60405180910390a16107f3565b6000908152600560205260409020546001600160a01b0316151590565b600081815260076020526040902080546001600160a01b0319166001600160a01b0384169081179091558190611ae682610e5d565b6001600160a01b03167f8c5be1e5ebec7d5bd14f71427d1e84f3dd0314c0f7b2291e5b200ac8c7c3b92560405160405180910390a45050565b6000611b2a82611a94565b611b8b5760405162461bcd60e51b815260206004820152602c60248201527f4552433732313a206f70657261746f7220717565727920666f72206e6f6e657860448201526b34b9ba32b73a103a37b5b2b760a11b60648201526084016107de565b6000611b9683610e5d565b9050806001600160a01b0316846001600160a01b03161480611bbd5750611bbd81856116b8565b8061199b5750836001600160a01b0316611bd68461098d565b6001600160a01b031614949350505050565b826001600160a01b0316611bfb82610e5d565b6001600160a01b031614611c5f5760405162461bcd60e51b815260206004820152602560248201527f4552433732313a207472616e736665722066726f6d20696e636f72726563742060448201526437bbb732b960d91b60648201526084016107de565b6001600160a01b038216611cc15760405162461bcd60e51b8152602060048201526024808201527f4552433732313a207472616e7366657220746f20746865207a65726f206164646044820152637265737360e01b60648201526084016107de565b611ccc600082611ab1565b6001600160a01b0383166000908152600660205260408120805460019290611cf59084906132b7565b90915550506001600160a01b0382166000908152600660205260408120805460019290611d239084906132ce565b909155505060008181526005602052604080822080546001600160a01b0319166001600160a01b03868116918217909255915184939187169160008051602061353683398151915291a4505050565b611d7c3386611b1f565b611d985760405162461bcd60e51b81526004016107de90613025565b611da488888888612224565b60008686604051602001611db99291906132e6565b6040516020818303038152906040529050611e0d8882878787878080601f01602080910402602001604051908101604052809392919081815260200183838082843760009201919091525061222d92505050565b604051630f428ae960e31b815261ffff891660048201523060248201526000907f00000000000000000000000000000000000000000000000000000000000000006001600160a01b031690637a1457489060440160206040518083038186803b158015611e7957600080fd5b505afa158015611e8d573d6000803e3d6000fd5b505050506040513d601f19601f82011682018060405250810190611eb19190613308565b905087604051611ec19190613166565b604080519182900382208983526001600160401b03841660208401529161ffff8c16916001600160a01b038e16917f024797cc77ce15dc717112d54fb1df125fdfd8c81344fb046c5e074427ce1543910160405180910390a46114ed565b60008082806020019051810190611f369190613325565b60148201519193509150611f4b878284612339565b6040805161ffff891681526001600160a01b03831660208201529081018390526001600160401b03861660608201527fd4d39d20f72eabd06c301e516d54653dfc9116de62c1d54bf1cb48cf3b42a7db9060800160405180910390a150505050505050565b600080546001600160a01b038381166001600160a01b0319831681178455604051919092169283917f8be0079c531659141344cd1fd0a4f28419497f9722a3daafe3b4186f6b6457e09190a35050565b610e59828260405180602001604052806000815250612343565b816001600160a01b0316836001600160a01b031614156120785760405162461bcd60e51b815260206004820152601960248201527822a9219b99189d1030b8383937bb32903a379031b0b63632b960391b60448201526064016107de565b6001600160a01b03838116600081815260086020908152604080832094871680845294825291829020805460ff191686151590811790915591519182527f17307eab39ab6107e8899845ad3d59bd9653f200f220920489ca2b5937696c31910160405180910390a3505050565b6120f0848484611be8565b6120fc84848484612376565b6107f35760405162461bcd60e51b81526004016107de9061336b565b60606009805461085a90612f43565b60608161214b5750506040805180820190915260018152600360fc1b602082015290565b8160005b8115612175578061215f816130e3565b915061216e9050600a836133d3565b915061214f565b6000816001600160401b0381111561218f5761218f612747565b6040519080825280601f01601f1916602001820160405280156121b9576020820181803683370190505b5090505b841561199b576121ce6001836132b7565b91506121db600a866133e7565b6121e69060306132ce565b60f81b8183815181106121fb576121fb6131cd565b60200101906001600160f81b031916908160001a90535061221d600a866133d3565b94506121bd565b6107f381612480565b61ffff85166000908152600160205260409020805461224b90612f43565b151590506122b65760405162461bcd60e51b815260206004820152603260248201527f4c7a53656e643a2064657374696e6174696f6e20636861696e206973206e6f746044820152711030903a393ab9ba32b21039b7bab931b29760711b60648201526084016107de565b61ffff851660009081526001602052604090819020905162c5803160e81b81526001600160a01b037f0000000000000000000000000000000000000000000000000000000000000000169163c5803100913491612320918a91908a908a908a908a906004016133fb565b6000604051808303818588803b1580156114d957600080fd5b610b218282612000565b61234d8383612509565b61235a6000848484612376565b610b215760405162461bcd60e51b81526004016107de9061336b565b60006001600160a01b0384163b1561247857604051630a85bd0160e11b81526001600160a01b0385169063150b7a02906123ba9033908990889088906004016134db565b602060405180830381600087803b1580156123d457600080fd5b505af1925050508015612404575060408051601f3d908101601f1916820190925261240191810190613518565b60015b61245e573d808015612432576040519150601f19603f3d011682016040523d82523d6000602084013e612437565b606091505b5080516124565760405162461bcd60e51b81526004016107de9061336b565b805181602001fd5b6001600160e01b031916630a85bd0160e11b14905061199b565b50600161199b565b600061248b82610e5d565b9050612498600083611ab1565b6001600160a01b03811660009081526006602052604081208054600192906124c19084906132b7565b909155505060008281526005602052604080822080546001600160a01b0319169055518391906001600160a01b03841690600080516020613536833981519152908390a45050565b6001600160a01b03821661255f5760405162461bcd60e51b815260206004820181905260248201527f4552433732313a206d696e7420746f20746865207a65726f206164647265737360448201526064016107de565b61256881611a94565b156125b55760405162461bcd60e51b815260206004820152601c60248201527f4552433732313a20746f6b656e20616c7265616479206d696e7465640000000060448201526064016107de565b6001600160a01b03821660009081526006602052604081208054600192906125de9084906132ce565b909155505060008181526005602052604080822080546001600160a01b0319166001600160a01b0386169081179091559051839290600080516020613536833981519152908290a45050565b82805461263690612f43565b90600052602060002090601f016020900481019282612658576000855561269e565b82601f1061267157805160ff191683800117855561269e565b8280016001018555821561269e579182015b8281111561269e578251825591602001919060010190612683565b506126aa929150612722565b5090565b8280546126ba90612f43565b90600052602060002090601f0160209004810192826126dc576000855561269e565b82601f106126f55782800160ff1982351617855561269e565b8280016001018555821561269e579182015b8281111561269e578235825591602001919060010190612707565b5b808211156126aa5760008155600101612723565b61ffff8116811461186357600080fd5b634e487b7160e01b600052604160045260246000fd5b604051601f8201601f191681016001600160401b038111828210171561278557612785612747565b604052919050565b60006001600160401b038211156127a6576127a6612747565b50601f01601f191660200190565b60006127c76127c28461278d565b61275d565b90508281528383830111156127db57600080fd5b828260208301376000602084830101529392505050565b600082601f83011261280357600080fd5b61129d838335602085016127b4565b6001600160401b038116811461186357600080fd5b6000806000806080858703121561283d57600080fd5b843561284881612737565b935060208501356001600160401b038082111561286457600080fd5b612870888389016127f2565b94506040870135915061288282612812565b9092506060860135908082111561289857600080fd5b506128a5878288016127f2565b91505092959194509250565b6001600160e01b03198116811461186357600080fd5b6000602082840312156128d957600080fd5b813561129d816128b1565b60005b838110156128ff5781810151838201526020016128e7565b838111156107f35750506000910152565b600081518084526129288160208601602086016128e4565b601f01601f19169290920160200192915050565b60208152600061129d6020830184612910565b60006020828403121561296157600080fd5b813561129d81612737565b60006020828403121561297e57600080fd5b5035919050565b6001600160a01b0391909116815260200190565b6001600160a01b038116811461186357600080fd5b600080604083850312156129c157600080fd5b82356129cc81612999565b946020939093013593505050565b6000806000606084860312156129ef57600080fd5b83356129fa81612999565b92506020840135612a0a81612999565b929592945050506040919091013590565b60008083601f840112612a2d57600080fd5b5081356001600160401b03811115612a4457600080fd5b602083019150836020828501011115612a5c57600080fd5b9250929050565b600080600060408486031215612a7857600080fd5b8335612a8381612737565b925060208401356001600160401b03811115612a9e57600080fd5b612aaa86828701612a1b565b9497909650939450505050565b600060208284031215612ac957600080fd5b813561129d81612999565b600080600080600080600080600060e08a8c031215612af257600080fd5b8935612afd81612999565b985060208a0135612b0d81612737565b975060408a01356001600160401b0380821115612b2957600080fd5b612b358d838e01612a1b565b909950975060608c0135965060808c01359150612b5182612999565b90945060a08b013590612b6382612999565b90935060c08b01359080821115612b7957600080fd5b50612b868c828d01612a1b565b915080935050809150509295985092959850929598565b600060208284031215612baf57600080fd5b81356001600160401b03811115612bc557600080fd5b8201601f81018413612bd657600080fd5b61199b848235602084016127b4565b600080600060608486031215612bfa57600080fd5b8335612c0581612737565b925060208401356001600160401b03811115612c2057600080fd5b612c2c868287016127f2565b925050604084013590509250925092565b60008060408385031215612c5057600080fd5b8235612c5b81612999565b915060208301358015158114612c7057600080fd5b809150509250929050565b60008060008060808587031215612c9157600080fd5b8435612c9c81612999565b93506020850135612cac81612999565b92506040850135915060608501356001600160401b03811115612cce57600080fd5b6128a5878288016127f2565b600080600080600060808688031215612cf257600080fd5b8535612cfd81612737565b94506020860135612d0d81612737565b93506040860135925060608601356001600160401b03811115612d2f57600080fd5b612d3b88828901612a1b565b969995985093965092949392505050565b600080600080600060808688031215612d6457600080fd5b8535612d6f81612737565b945060208601356001600160401b0380821115612d8b57600080fd5b612d9789838a016127f2565b955060408801359150612da982612812565b90935060608701359080821115612dbf57600080fd5b50612d3b88828901612a1b565b6020808252825182820181905260009190848201906040850190845b81811015612e0457835183529284019291840191600101612de8565b50909695505050505050565b60008060408385031215612e2357600080fd5b8235612e2e81612999565b91506020830135612c7081612999565b60008060008060008060008060c0898b031215612e5a57600080fd5b8835612e6581612737565b975060208901356001600160401b0380821115612e8157600080fd5b612e8d8c838d01612a1b565b909950975060408b0135965060608b01359150612ea982612999565b90945060808a013590612ebb82612999565b90935060a08a01359080821115612ed157600080fd5b50612ede8b828c01612a1b565b999c989b5096995094979396929594505050565b60008060008060808587031215612f0857600080fd5b8435612f1381612737565b93506020850135612f2381612737565b92506040850135612f3381612999565b9396929550929360600135925050565b600181811c90821680612f5757607f821691505b60208210811415612f7857634e487b7160e01b600052602260045260246000fd5b50919050565b6000808354612f8c81612f43565b60018281168015612fa45760018114612fb557612fe4565b60ff19841687528287019450612fe4565b8760005260208060002060005b85811015612fdb5781548a820152908401908201612fc2565b50505082870194505b50929695505050505050565b6020808252818101527f4f776e61626c653a2063616c6c6572206973206e6f7420746865206f776e6572604082015260600190565b60208082526031908201527f4552433732313a207472616e736665722063616c6c6572206973206e6f74206f6040820152701ddb995c881b9bdc88185c1c1c9bdd9959607a1b606082015260800190565b8183823760009101908152919050565b81835281816020850137506000828201602090810191909152601f909101601f19169091010190565b61ffff84168152604060208201526000611998604083018486613086565b634e487b7160e01b600052601160045260246000fd5b60006000198214156130f7576130f76130cd565b5060010190565b600083516131108184602088016128e4565b8351908301906131248183602088016128e4565b01949350505050565b600061ffff80881683528087166020840152508460408301526080606083015261315b608083018486613086565b979650505050505050565b600082516131788184602087016128e4565b9190910192915050565b61ffff8616815260806020820152600061319f6080830187612910565b6001600160401b038616604084015282810360608401526131c1818587613086565b98975050505050505050565b634e487b7160e01b600052603260045260246000fd5b6000602082840312156131f557600080fd5b815161129d81612737565b600082601f83011261321157600080fd5b815161321f6127c28261278d565b81815284602083860101111561323457600080fd5b61199b8260208301602087016128e4565b60006020828403121561325757600080fd5b81516001600160401b0381111561326d57600080fd5b61199b84828501613200565b61ffff851681526080602082015260006132966080830186612910565b6001600160401b0385166040840152828103606084015261315b8185612910565b6000828210156132c9576132c96130cd565b500390565b600082198211156132e1576132e16130cd565b500190565b6040815260006132f96040830185612910565b90508260208301529392505050565b60006020828403121561331a57600080fd5b815161129d81612812565b6000806040838503121561333857600080fd5b82516001600160401b0381111561334e57600080fd5b61335a85828601613200565b925050602083015190509250929050565b60208082526032908201527f4552433732313a207472616e7366657220746f206e6f6e20455243373231526560408201527131b2b4bb32b91034b6b83632b6b2b73a32b960711b606082015260800190565b634e487b7160e01b600052601260045260246000fd5b6000826133e2576133e26133bd565b500490565b6000826133f6576133f66133bd565b500690565b61ffff871681526000602060c0818401526000885461341981612f43565b8060c087015260e060018084166000811461343b57600181146134505761347e565b60ff198516898401526101008901955061347e565b8d6000528660002060005b858110156134765781548b820186015290830190880161345b565b8a0184019650505b505050505083810360408501526134958189612910565b9150506134ad60608401876001600160a01b03169052565b6001600160a01b038516608084015282810360a08401526134ce8185612910565b9998505050505050505050565b6001600160a01b038581168252841660208201526040810183905260806060820181905260009061350e90830184612910565b9695505050505050565b60006020828403121561352a57600080fd5b815161129d816128b156feddf252ad1be2c89b69c2b068fc378daa952ba7f163c4a11628f55a4df523b3efa2646970667358221220b195152c97e6216332babcaafc99bbcaa87cc72c30100535378100d0f867444d64736f6c63430008090033",
  "devdoc": {
    "kind": "dev",
    "methods": {
      "approve(address,uint256)": {
        "details": "See {IERC721-approve}."
      },
      "balanceOf(address)": {
        "details": "See {IERC721-balanceOf}."
      },
      "constructor": {
        "params": {
          "_layerZeroEndpoint": "handles message transmission across chains"
        }
      },
      "getApproved(uint256)": {
        "details": "See {IERC721-getApproved}."
      },
      "isApprovedForAll(address,address)": {
        "details": "See {IERC721-isApprovedForAll}."
      },
      "name()": {
        "details": "See {IERC721Metadata-name}."
      },
      "owner()": {
        "details": "Returns the address of the current owner."
      },
      "ownerOf(uint256)": {
        "details": "See {IERC721-ownerOf}."
      },
      "renounceOwnership()": {
        "details": "Leaves the contract without owner. It will not be possible to call `onlyOwner` functions anymore. Can only be called by the current owner. NOTE: Renouncing ownership will leave the contract without an owner, thereby removing any functionality that is only available to the owner."
      },
      "safeTransferFrom(address,address,uint256)": {
        "details": "See {IERC721-safeTransferFrom}."
      },
      "safeTransferFrom(address,address,uint256,bytes)": {
        "details": "See {IERC721-safeTransferFrom}."
      },
      "send(uint16,bytes,uint256,address,address,bytes)": {
        "details": "send token `_tokenId` to (`_dstChainId`, `_toAddress`) `_toAddress` can be any size depending on the `dstChainId`. `_zroPaymentAddress` set to address(0x0) if not paying in ZRO (LayerZero Token) `_adapterParam` is a flexible bytes array to indicate messaging adapter services"
      },
      "sendFrom(address,uint16,bytes,uint256,address,address,bytes)": {
        "details": "send token `_tokenId` to (`_dstChainId`, `_toAddress`) from `_from` `_toAddress` can be any size depending on the `dstChainId`. `_zroPaymentAddress` set to address(0x0) if not paying in ZRO (LayerZero Token) `_adapterParam` is a flexible bytes array to indicate messaging adapter services"
      },
      "setApprovalForAll(address,bool)": {
        "details": "See {IERC721-setApprovalForAll}."
      },
      "supportsInterface(bytes4)": {
        "details": "See {IERC165-supportsInterface}."
      },
      "symbol()": {
        "details": "See {IERC721Metadata-symbol}."
      },
      "tokenURI(uint256)": {
        "details": "See {IERC721Metadata-tokenURI}."
      },
      "transferFrom(address,address,uint256)": {
        "details": "See {IERC721-transferFrom}."
      },
      "transferOwnership(address)": {
        "details": "Transfers ownership of the contract to a new account (`newOwner`). Can only be called by the current owner."
      }
    },
    "version": 1
  },
  "userdoc": {
    "kind": "user",
    "methods": {
      "mintFor(address)": {
        "notice": "Mint your ONFT"
      }
    },
    "version": 1
  },
  "storageLayout": {
    "storage": [
      {
        "astId": 7,
        "contract": "contracts/GodNFT.sol:GodNFT",
        "label": "_owner",
        "offset": 0,
        "slot": "0",
        "type": "t_address"
      },
      {
        "astId": 17628,
        "contract": "contracts/GodNFT.sol:GodNFT",
        "label": "trustedRemoteLookup",
        "offset": 0,
        "slot": "1",
        "type": "t_mapping(t_uint16,t_bytes_storage)"
      },
      {
        "astId": 17942,
        "contract": "contracts/GodNFT.sol:GodNFT",
        "label": "failedMessages",
        "offset": 0,
        "slot": "2",
        "type": "t_mapping(t_uint16,t_mapping(t_bytes_memory_ptr,t_mapping(t_uint256,t_bytes32)))"
      },
      {
        "astId": 1127,
        "contract": "contracts/GodNFT.sol:GodNFT",
        "label": "_name",
        "offset": 0,
        "slot": "3",
        "type": "t_string_storage"
      },
      {
        "astId": 1129,
        "contract": "contracts/GodNFT.sol:GodNFT",
        "label": "_symbol",
        "offset": 0,
        "slot": "4",
        "type": "t_string_storage"
      },
      {
        "astId": 1133,
        "contract": "contracts/GodNFT.sol:GodNFT",
        "label": "_owners",
        "offset": 0,
        "slot": "5",
        "type": "t_mapping(t_uint256,t_address)"
      },
      {
        "astId": 1137,
        "contract": "contracts/GodNFT.sol:GodNFT",
        "label": "_balances",
        "offset": 0,
        "slot": "6",
        "type": "t_mapping(t_address,t_uint256)"
      },
      {
        "astId": 1141,
        "contract": "contracts/GodNFT.sol:GodNFT",
        "label": "_tokenApprovals",
        "offset": 0,
        "slot": "7",
        "type": "t_mapping(t_uint256,t_address)"
      },
      {
        "astId": 1147,
        "contract": "contracts/GodNFT.sol:GodNFT",
        "label": "_operatorApprovals",
        "offset": 0,
        "slot": "8",
        "type": "t_mapping(t_address,t_mapping(t_address,t_bool))"
      },
      {
        "astId": 18305,
        "contract": "contracts/GodNFT.sol:GodNFT",
        "label": "baseTokenURI",
        "offset": 0,
        "slot": "9",
        "type": "t_string_storage"
      },
      {
        "astId": 5019,
        "contract": "contracts/GodNFT.sol:GodNFT",
        "label": "nextMintId",
        "offset": 0,
        "slot": "10",
        "type": "t_uint256"
      },
      {
        "astId": 5021,
        "contract": "contracts/GodNFT.sol:GodNFT",
        "label": "maxSupply",
        "offset": 0,
        "slot": "11",
        "type": "t_uint256"
      },
      {
        "astId": 5023,
        "contract": "contracts/GodNFT.sol:GodNFT",
        "label": "managerAddress",
        "offset": 0,
        "slot": "12",
        "type": "t_address"
      }
    ],
    "types": {
      "t_address": {
        "encoding": "inplace",
        "label": "address",
        "numberOfBytes": "20"
      },
      "t_bool": {
        "encoding": "inplace",
        "label": "bool",
        "numberOfBytes": "1"
      },
      "t_bytes32": {
        "encoding": "inplace",
        "label": "bytes32",
        "numberOfBytes": "32"
      },
      "t_bytes_memory_ptr": {
        "encoding": "bytes",
        "label": "bytes",
        "numberOfBytes": "32"
      },
      "t_bytes_storage": {
        "encoding": "bytes",
        "label": "bytes",
        "numberOfBytes": "32"
      },
      "t_mapping(t_address,t_bool)": {
        "encoding": "mapping",
        "key": "t_address",
        "label": "mapping(address => bool)",
        "numberOfBytes": "32",
        "value": "t_bool"
      },
      "t_mapping(t_address,t_mapping(t_address,t_bool))": {
        "encoding": "mapping",
        "key": "t_address",
        "label": "mapping(address => mapping(address => bool))",
        "numberOfBytes": "32",
        "value": "t_mapping(t_address,t_bool)"
      },
      "t_mapping(t_address,t_uint256)": {
        "encoding": "mapping",
        "key": "t_address",
        "label": "mapping(address => uint256)",
        "numberOfBytes": "32",
        "value": "t_uint256"
      },
      "t_mapping(t_bytes_memory_ptr,t_mapping(t_uint256,t_bytes32))": {
        "encoding": "mapping",
        "key": "t_bytes_memory_ptr",
        "label": "mapping(bytes => mapping(uint256 => bytes32))",
        "numberOfBytes": "32",
        "value": "t_mapping(t_uint256,t_bytes32)"
      },
      "t_mapping(t_uint16,t_bytes_storage)": {
        "encoding": "mapping",
        "key": "t_uint16",
        "label": "mapping(uint16 => bytes)",
        "numberOfBytes": "32",
        "value": "t_bytes_storage"
      },
      "t_mapping(t_uint16,t_mapping(t_bytes_memory_ptr,t_mapping(t_uint256,t_bytes32)))": {
        "encoding": "mapping",
        "key": "t_uint16",
        "label": "mapping(uint16 => mapping(bytes => mapping(uint256 => bytes32)))",
        "numberOfBytes": "32",
        "value": "t_mapping(t_bytes_memory_ptr,t_mapping(t_uint256,t_bytes32))"
      },
      "t_mapping(t_uint256,t_address)": {
        "encoding": "mapping",
        "key": "t_uint256",
        "label": "mapping(uint256 => address)",
        "numberOfBytes": "32",
        "value": "t_address"
      },
      "t_mapping(t_uint256,t_bytes32)": {
        "encoding": "mapping",
        "key": "t_uint256",
        "label": "mapping(uint256 => bytes32)",
        "numberOfBytes": "32",
        "value": "t_bytes32"
      },
      "t_string_storage": {
        "encoding": "bytes",
        "label": "string",
        "numberOfBytes": "32"
      },
      "t_uint16": {
        "encoding": "inplace",
        "label": "uint16",
        "numberOfBytes": "2"
      },
      "t_uint256": {
        "encoding": "inplace",
        "label": "uint256",
        "numberOfBytes": "32"
      }
    }
  }
}