{
  "address": "0x9fE46736679d2D9a65F0992F2272dE9f3c7fa6e0",
  "abi": [
    {
      "inputs": [
        {
          "internalType": "address",
          "name": "_nft",
          "type": "address"
        },
        {
          "internalType": "address",
          "name": "_token",
          "type": "address"
        }
      ],
      "stateMutability": "nonpayable",
      "type": "constructor"
    },
    {
      "anonymous": false,
      "inputs": [
        {
          "indexed": true,
          "internalType": "address",
          "name": "previousOwner",
          "type": "address"
        },
        {
          "indexed": true,
          "internalType": "address",
          "name": "newOwner",
          "type": "address"
        }
      ],
      "name": "OwnershipTransferred",
      "type": "event"
    },
    {
      "inputs": [
        {
          "internalType": "address",
          "name": "_owner",
          "type": "address"
        },
        {
          "internalType": "uint256",
          "name": "_offset",
          "type": "uint256"
        },
        {
          "internalType": "uint256",
          "name": "_maxSize",
          "type": "uint256"
        }
      ],
      "name": "batchedStakesOfOwner",
      "outputs": [
        {
          "internalType": "uint256[]",
          "name": "",
          "type": "uint256[]"
        }
      ],
      "stateMutability": "view",
      "type": "function"
    },
    {
      "inputs": [
        {
          "internalType": "address",
          "name": "",
          "type": "address"
        },
        {
          "internalType": "address",
          "name": "from",
          "type": "address"
        },
        {
          "internalType": "uint256",
          "name": "",
          "type": "uint256"
        },
        {
          "internalType": "bytes",
          "name": "",
          "type": "bytes"
        }
      ],
      "name": "onERC721Received",
      "outputs": [
        {
          "internalType": "bytes4",
          "name": "",
          "type": "bytes4"
        }
      ],
      "stateMutability": "pure",
      "type": "function"
    },
    {
      "inputs": [
        {
          "internalType": "address",
          "name": "",
          "type": "address"
        },
        {
          "internalType": "uint256",
          "name": "",
          "type": "uint256"
        }
      ],
      "name": "ownedStakes",
      "outputs": [
        {
          "internalType": "uint256",
          "name": "",
          "type": "uint256"
        }
      ],
      "stateMutability": "view",
      "type": "function"
    },
    {
      "inputs": [
        {
          "internalType": "address",
          "name": "",
          "type": "address"
        }
      ],
      "name": "ownedStakesBalance",
      "outputs": [
        {
          "internalType": "uint256",
          "name": "",
          "type": "uint256"
        }
      ],
      "stateMutability": "view",
      "type": "function"
    },
    {
      "inputs": [
        {
          "internalType": "uint256",
          "name": "",
          "type": "uint256"
        }
      ],
      "name": "ownedStakesIndex",
      "outputs": [
        {
          "internalType": "uint256",
          "name": "",
          "type": "uint256"
        }
      ],
      "stateMutability": "view",
      "type": "function"
    },
    {
      "inputs": [],
      "name": "owner",
      "outputs": [
        {
          "internalType": "address",
          "name": "",
          "type": "address"
        }
      ],
      "stateMutability": "view",
      "type": "function"
    },
    {
      "inputs": [],
      "name": "renounceOwnership",
      "outputs": [],
      "stateMutability": "nonpayable",
      "type": "function"
    },
    {
      "inputs": [
        {
          "internalType": "uint256[]",
          "name": "tokenIds",
          "type": "uint256[]"
        }
      ],
      "name": "stake",
      "outputs": [],
      "stateMutability": "nonpayable",
      "type": "function"
    },
    {
      "inputs": [
        {
          "internalType": "uint256",
          "name": "",
          "type": "uint256"
        }
      ],
      "name": "stakers",
      "outputs": [
        {
          "internalType": "uint256",
          "name": "timestamp",
          "type": "uint256"
        },
        {
          "internalType": "address",
          "name": "owner",
          "type": "address"
        }
      ],
      "stateMutability": "view",
      "type": "function"
    },
    {
      "inputs": [],
      "name": "totalStaked",
      "outputs": [
        {
          "internalType": "uint256",
          "name": "",
          "type": "uint256"
        }
      ],
      "stateMutability": "view",
      "type": "function"
    },
    {
      "inputs": [
        {
          "internalType": "address",
          "name": "newOwner",
          "type": "address"
        }
      ],
      "name": "transferOwnership",
      "outputs": [],
      "stateMutability": "nonpayable",
      "type": "function"
    },
    {
      "inputs": [
        {
          "internalType": "address",
          "name": "_staker",
          "type": "address"
        },
        {
          "internalType": "uint256[]",
          "name": "tokenIds",
          "type": "uint256[]"
        }
      ],
      "name": "unstake",
      "outputs": [],
      "stateMutability": "nonpayable",
      "type": "function"
    },
    {
      "stateMutability": "payable",
      "type": "receive"
    }
  ],
  "transactionHash": "0x9ada7586c5bb33a0171bd082dcb0d75c574a510e1d9262e4557fa95f635b4d01",
  "args": [
    "0xe7f1725E7734CE288F8367e1Bb143E90bb3F0512",
    "0x5FbDB2315678afecb367f032d93F642f64180aa3"
  ],
  "numDeployments": 1,
  "solcInputHash": "cd085f476446e0e3370666ee01a67124",
  "bytecode": "0x608060405234801561001057600080fd5b50604051620013af380380620013af833981016040819052610031916100d7565b61003a3361006b565b600380546001600160a01b039384166001600160a01b0319918216179091556002805492909316911617905561010a565b600080546001600160a01b038381166001600160a01b0319831681178455604051919092169283917f8be0079c531659141344cd1fd0a4f28419497f9722a3daafe3b4186f6b6457e09190a35050565b80516001600160a01b03811681146100d257600080fd5b919050565b600080604083850312156100ea57600080fd5b6100f3836100bb565b9150610101602084016100bb565b90509250929050565b611295806200011a6000396000f3fe60806040526004361061009b5760003560e01c80630fbf0a93146100a7578063150b7a02146100c95780634b63a04b1461010757806359a7c678146101425780635dbe47561461016f57806364c5bc1f1461018f578063715018a6146101bc5780637be6a23c146101d1578063817b1cd2146102095780638da5cb5b1461021f578063f2fde38b14610241578063fd5e6dd11461026157600080fd5b366100a257005b600080fd5b3480156100b357600080fd5b506100c76100c2366004610e59565b6102bb565b005b3480156100d557600080fd5b506100e96100e4366004610eaf565b610543565b6040516001600160e01b031990911681526020015b60405180910390f35b34801561011357600080fd5b50610134610122366004610f4d565b60076020526000908152604090205481565b6040519081526020016100fe565b34801561014e57600080fd5b5061013461015d366004610f6a565b60066020526000908152604090205481565b34801561017b57600080fd5b506100c761018a366004610f83565b6105a8565b34801561019b57600080fd5b506101af6101aa366004610fd7565b6108a8565b6040516100fe919061100c565b3480156101c857600080fd5b506100c76109f2565b3480156101dd57600080fd5b506101346101ec366004611050565b600560209081526000928352604080842090915290825290205481565b34801561021557600080fd5b5061013460015481565b34801561022b57600080fd5b50610234610a2d565b6040516100fe919061107c565b34801561024d57600080fd5b506100c761025c366004610f4d565b610a3c565b34801561026d57600080fd5b5061029e61027c366004610f6a565b600460205260009081526040902080546001909101546001600160a01b031682565b604080519283526001600160a01b039091166020830152016100fe565b60018054600091339184919084906102d49084906110a6565b90915550600090505b8381101561053c578484828181106102f7576102f76110be565b6003546040516331a9108f60e11b8152602092909202939093013560048201819052955033926001600160a01b03169150636352211e9060240160206040518083038186803b15801561034957600080fd5b505afa15801561035d573d6000803e3d6000fd5b505050506040513d601f19601f8201168201806040525081019061038191906110d4565b6001600160a01b0316146103cd5760405162461bcd60e51b815260206004820152600e60248201526d3737ba103cb7bab9103a37b5b2b760911b60448201526064015b60405180910390fd5b6000838152600460205260409020541561041a5760405162461bcd60e51b815260206004820152600e60248201526d185b1c9958591e481cdd185ad95960921b60448201526064016103c4565b6040805180820182524281526001600160a01b038481166020808401828152600089815260048352868120955186559051600190950180546001600160a01b0319169590941694909417909255808352600780835284842080546005855286862081875285528686208a9055898652600685529585208690559184529091528054916104a5836110f1565b90915550506003546040516323b872dd60e01b81526001600160a01b03909116906323b872dd906104de9033903090899060040161110c565b600060405180830381600087803b1580156104f857600080fd5b505af115801561050c573d6000803e3d6000fd5b505060025461052992506001600160a01b03169050336001610adc565b5080610534816110f1565b9150506102dd565b5050505050565b60006001600160a01b038516156105965760405162461bcd60e51b815260206004820152601760248201527610d85b9b9bdd081cd95b99081b999d1cc81d1bc8141a5d604a1b60448201526064016103c4565b50630a85bd0160e11b95945050505050565b60018054600091339184919084906105c1908490611130565b90915550506002546040516370a0823160e01b815284916001600160a01b0316906370a08231906105f690339060040161107c565b60206040518083038186803b15801561060e57600080fd5b505afa158015610622573d6000803e3d6000fd5b505050506040513d601f19601f820116820180604052508101906106469190611147565b101561068d5760405162461bcd60e51b81526020600482015260166024820152756e6f7420656e6f75676820474f445320746f6b656e7360501b60448201526064016103c4565b60005b838110156108a0578484828181106106aa576106aa6110be565b60209081029290920135600081815260048452604090819020815180830190925280548252600101546001600160a01b031693810184905290955091331490506107255760405162461bcd60e51b815260206004820152600c60248201526b3737ba1030b71037bbb732b960a11b60448201526064016103c4565b6000848152600460209081526040808320838155600190810180546001600160a01b03191690556001600160a01b0387168452600790925282205461076a9190611130565b6000868152600660205260409020549091508082146107bd576001600160a01b03851660009081526005602090815260408083208584528252808320548484528184208190558352600690915290208190555b60008681526006602090815260408083208390556001600160a01b03881683526005825280832085845282528083208390553383526007909152812080549161080583611160565b90915550506003546040516323b872dd60e01b81526001600160a01b03909116906323b872dd9061083e9030908d908b9060040161110c565b600060405180830381600087803b15801561085857600080fd5b505af115801561086c573d6000803e3d6000fd5b505060025461088a92506001600160a01b0316905033306001610b44565b5050508080610898906110f1565b915050610690565b505050505050565b6001600160a01b03831660009081526007602052604090205460609083106108df57506040805160008152602081019091526109eb565b6001600160a01b038416600090815260076020526040902054829061090482866110a6565b10610930576001600160a01b03851660009081526007602052604090205461092d908590611130565b90505b6000816001600160401b0381111561094a5761094a611177565b604051908082528060200260200182016040528015610973578160200160208202803683370190505b50905060005b828110156109e6576001600160a01b0387166000908152600560205260408120816109a4848a6110a6565b8152602001908152602001600020549050808383815181106109c8576109c86110be565b602090810291909101015250806109de816110f1565b915050610979565b509150505b9392505050565b336109fb610a2d565b6001600160a01b031614610a215760405162461bcd60e51b81526004016103c49061118d565b610a2b6000610b6b565b565b6000546001600160a01b031690565b33610a45610a2d565b6001600160a01b031614610a6b5760405162461bcd60e51b81526004016103c49061118d565b6001600160a01b038116610ad05760405162461bcd60e51b815260206004820152602660248201527f4f776e61626c653a206e6577206f776e657220697320746865207a65726f206160448201526564647265737360d01b60648201526084016103c4565b610ad981610b6b565b50565b6040516001600160a01b038316602482015260448101829052610b3f90849063a9059cbb60e01b906064015b60408051601f198184030181529190526020810180516001600160e01b03166001600160e01b031990931692909217909152610bbb565b505050565b610b65846323b872dd60e01b858585604051602401610b089392919061110c565b50505050565b600080546001600160a01b038381166001600160a01b0319831681178455604051919092169283917f8be0079c531659141344cd1fd0a4f28419497f9722a3daafe3b4186f6b6457e09190a35050565b6000610c10826040518060400160405280602081526020017f5361666545524332303a206c6f772d6c6576656c2063616c6c206661696c6564815250856001600160a01b0316610c8d9092919063ffffffff16565b805190915015610b3f5780806020019051810190610c2e91906111c2565b610b3f5760405162461bcd60e51b815260206004820152602a60248201527f5361666545524332303a204552433230206f7065726174696f6e20646964206e6044820152691bdd081cdd58d8d9595960b21b60648201526084016103c4565b6060610c9c8484600085610ca4565b949350505050565b606082471015610d055760405162461bcd60e51b815260206004820152602660248201527f416464726573733a20696e73756666696369656e742062616c616e636520666f6044820152651c8818d85b1b60d21b60648201526084016103c4565b6001600160a01b0385163b610d5c5760405162461bcd60e51b815260206004820152601d60248201527f416464726573733a2063616c6c20746f206e6f6e2d636f6e747261637400000060448201526064016103c4565b600080866001600160a01b03168587604051610d789190611210565b60006040518083038185875af1925050503d8060008114610db5576040519150601f19603f3d011682016040523d82523d6000602084013e610dba565b606091505b5091509150610dca828286610dd5565b979650505050505050565b60608315610de45750816109eb565b825115610df45782518084602001fd5b8160405162461bcd60e51b81526004016103c4919061122c565b60008083601f840112610e2057600080fd5b5081356001600160401b03811115610e3757600080fd5b6020830191508360208260051b8501011115610e5257600080fd5b9250929050565b60008060208385031215610e6c57600080fd5b82356001600160401b03811115610e8257600080fd5b610e8e85828601610e0e565b90969095509350505050565b6001600160a01b0381168114610ad957600080fd5b600080600080600060808688031215610ec757600080fd5b8535610ed281610e9a565b94506020860135610ee281610e9a565b93506040860135925060608601356001600160401b0380821115610f0557600080fd5b818801915088601f830112610f1957600080fd5b813581811115610f2857600080fd5b896020828501011115610f3a57600080fd5b9699959850939650602001949392505050565b600060208284031215610f5f57600080fd5b81356109eb81610e9a565b600060208284031215610f7c57600080fd5b5035919050565b600080600060408486031215610f9857600080fd5b8335610fa381610e9a565b925060208401356001600160401b03811115610fbe57600080fd5b610fca86828701610e0e565b9497909650939450505050565b600080600060608486031215610fec57600080fd5b8335610ff781610e9a565b95602085013595506040909401359392505050565b6020808252825182820181905260009190848201906040850190845b8181101561104457835183529284019291840191600101611028565b50909695505050505050565b6000806040838503121561106357600080fd5b823561106e81610e9a565b946020939093013593505050565b6001600160a01b0391909116815260200190565b634e487b7160e01b600052601160045260246000fd5b600082198211156110b9576110b9611090565b500190565b634e487b7160e01b600052603260045260246000fd5b6000602082840312156110e657600080fd5b81516109eb81610e9a565b600060001982141561110557611105611090565b5060010190565b6001600160a01b039384168152919092166020820152604081019190915260600190565b60008282101561114257611142611090565b500390565b60006020828403121561115957600080fd5b5051919050565b60008161116f5761116f611090565b506000190190565b634e487b7160e01b600052604160045260246000fd5b6020808252818101527f4f776e61626c653a2063616c6c6572206973206e6f7420746865206f776e6572604082015260600190565b6000602082840312156111d457600080fd5b815180151581146109eb57600080fd5b60005b838110156111ff5781810151838201526020016111e7565b83811115610b655750506000910152565b600082516112228184602087016111e4565b9190910192915050565b602081526000825180602084015261124b8160408501602087016111e4565b601f01601f1916919091016040019291505056fea2646970667358221220ad7abffbb5cc1c72a4498d3788d24838c5bad500a9f827449f604143fd4110c864736f6c63430008090033",
  "devdoc": {
    "kind": "dev",
    "methods": {
      "owner()": {
        "details": "Returns the address of the current owner."
      },
      "renounceOwnership()": {
        "details": "Leaves the contract without owner. It will not be possible to call `onlyOwner` functions anymore. Can only be called by the current owner. NOTE: Renouncing ownership will leave the contract without an owner, thereby removing any functionality that is only available to the owner."
      },
      "transferOwnership(address)": {
        "details": "Transfers ownership of the contract to a new account (`newOwner`). Can only be called by the current owner."
      }
    },
    "version": 1
  },
  "userdoc": {
    "kind": "user",
    "methods": {},
    "version": 1
  },
  "storageLayout": {
    "storage": [
      {
        "astId": 7,
        "contract": "contracts/NFTStaker.sol:NFTStaker",
        "label": "_owner",
        "offset": 0,
        "slot": "0",
        "type": "t_address"
      },
      {
        "astId": 5222,
        "contract": "contracts/NFTStaker.sol:NFTStaker",
        "label": "totalStaked",
        "offset": 0,
        "slot": "1",
        "type": "t_uint256"
      },
      {
        "astId": 5225,
        "contract": "contracts/NFTStaker.sol:NFTStaker",
        "label": "token",
        "offset": 0,
        "slot": "2",
        "type": "t_contract(IERC20)808"
      },
      {
        "astId": 5228,
        "contract": "contracts/NFTStaker.sol:NFTStaker",
        "label": "nft",
        "offset": 0,
        "slot": "3",
        "type": "t_contract(IERC721)2083"
      },
      {
        "astId": 5238,
        "contract": "contracts/NFTStaker.sol:NFTStaker",
        "label": "stakers",
        "offset": 0,
        "slot": "4",
        "type": "t_mapping(t_uint256,t_struct(Staker)5233_storage)"
      },
      {
        "astId": 5244,
        "contract": "contracts/NFTStaker.sol:NFTStaker",
        "label": "ownedStakes",
        "offset": 0,
        "slot": "5",
        "type": "t_mapping(t_address,t_mapping(t_uint256,t_uint256))"
      },
      {
        "astId": 5248,
        "contract": "contracts/NFTStaker.sol:NFTStaker",
        "label": "ownedStakesIndex",
        "offset": 0,
        "slot": "6",
        "type": "t_mapping(t_uint256,t_uint256)"
      },
      {
        "astId": 5252,
        "contract": "contracts/NFTStaker.sol:NFTStaker",
        "label": "ownedStakesBalance",
        "offset": 0,
        "slot": "7",
        "type": "t_mapping(t_address,t_uint256)"
      }
    ],
    "types": {
      "t_address": {
        "encoding": "inplace",
        "label": "address",
        "numberOfBytes": "20"
      },
      "t_contract(IERC20)808": {
        "encoding": "inplace",
        "label": "contract IERC20",
        "numberOfBytes": "20"
      },
      "t_contract(IERC721)2083": {
        "encoding": "inplace",
        "label": "contract IERC721",
        "numberOfBytes": "20"
      },
      "t_mapping(t_address,t_mapping(t_uint256,t_uint256))": {
        "encoding": "mapping",
        "key": "t_address",
        "label": "mapping(address => mapping(uint256 => uint256))",
        "numberOfBytes": "32",
        "value": "t_mapping(t_uint256,t_uint256)"
      },
      "t_mapping(t_address,t_uint256)": {
        "encoding": "mapping",
        "key": "t_address",
        "label": "mapping(address => uint256)",
        "numberOfBytes": "32",
        "value": "t_uint256"
      },
      "t_mapping(t_uint256,t_struct(Staker)5233_storage)": {
        "encoding": "mapping",
        "key": "t_uint256",
        "label": "mapping(uint256 => struct NFTStaker.Staker)",
        "numberOfBytes": "32",
        "value": "t_struct(Staker)5233_storage"
      },
      "t_mapping(t_uint256,t_uint256)": {
        "encoding": "mapping",
        "key": "t_uint256",
        "label": "mapping(uint256 => uint256)",
        "numberOfBytes": "32",
        "value": "t_uint256"
      },
      "t_struct(Staker)5233_storage": {
        "encoding": "inplace",
        "label": "struct NFTStaker.Staker",
        "members": [
          {
            "astId": 5230,
            "contract": "contracts/NFTStaker.sol:NFTStaker",
            "label": "timestamp",
            "offset": 0,
            "slot": "0",
            "type": "t_uint256"
          },
          {
            "astId": 5232,
            "contract": "contracts/NFTStaker.sol:NFTStaker",
            "label": "owner",
            "offset": 0,
            "slot": "1",
            "type": "t_address"
          }
        ],
        "numberOfBytes": "64"
      },
      "t_uint256": {
        "encoding": "inplace",
        "label": "uint256",
        "numberOfBytes": "32"
      }
    }
  }
}